:100000000C94C8030C94920F0C94E5030C94E50334
:100010000C94E5030C94E5030C94E5030C94830F16
:100020000C94E5030C94E5030C94E5030C94E503B0
:100030000C94E5030C94E5030C94E5030C94E503A0
:100040000C94740F0C94E5030C94E5030C94E503F5
:100050000C94E5030C94E5030C94E5030C94E50380
:100060000C94E5030C94E5030C94E5030C94E50370
:1000700052657475726E004465627567204F7074C6
:100080002032004465627567204F7074203100444F
:1000900065627567204D656E750044656275670021
:1000A00043616C204F707420320043616C204F70AC
:1000B0007420310043616C696272617465204D6522
:1000C0006E750043616C696272617465005265739C
:1000D000657420486967682053636F7265730048D0
:1000E0006967682053636F726573204D656E750094
:1000F000486967682053636F726573004861726472
:10010000004D656469756D00456173790043686FE2
:100110006F736520446966666963756C7479004E17
:1001200065772047616D65204D656E75004D61698D
:100130006E204D656E750050696E6720506F6E675A
:100140000000000000005C00000C000C007C287C1B
:100150002858DC68002410480028542840000C006F
:1001600000007884008478000054385400107C101B
:100170000080400000101010000040000060100CD3
:100180000038543800487C40004864580044542CDF
:10019000001C107C005C5424003854240064140CAF
:1001A0000068542C00485438000048000080480083
:1001B000001028440028282800442810000454086F
:1001C0000038445C00781478007C542800384428B7
:1001D000007C4438007C5444007C1404003844748F
:1001E000007C107C00447C440020403C007C106C6F
:1001F000007C4040007C187C0078103C003844387B
:10020000007C1408003844B8007C1468004854246A
:1002100000047C04007C407C003C603C007C307C22
:10022000006C106C000C700C0064544C00007C449A
:10023000000C106000447C000008040800808080EE
:100240000000040800304878007C483000304848FE
:100250000030487C00306850001078140090A87876
:10026000007C08700050744000808074007C10682E
:1002700000447C40007810780078087000304830E6
:1002800000F82810003048F800781008005058286E
:1002900000083C4800384078003840380078207822
:1002A000004830480098A0780048685800107884CA
:1002B00000007C000084781000080408040000009E
:1002C000000000005F00000007000700147F147F9B
:1002D00014242A7F2A1223130864623649552250B7
:1002E0000005030000001C2241000041221C000800
:1002F0002A1C2A0808083E08080050300000080898
:10030000080808006060000020100804023E5149FF
:10031000453E00427F400042615149462141454BE4
:10032000311814127F1027454545393C4A49493058
:1003300001710905033649494936064949291E0014
:10034000363600000056360000000814224114140E
:10035000141414412214080002015109063249798B
:10036000413E7E1111117E7F494949363E4141414E
:10037000227F4141221C7F494949417F09090101EE
:100380003E414151327F0808087F00417F410020F3
:1003900040413F017F081422417F404040407F029E
:1003A00004027F7F0408107F3E4141413E7F0909DE
:1003B00009063E4151215E7F0919294646494949AE
:1003C0003101017F01013F4040403F1F2040201F7D
:1003D0007F2018207F6314081463030478040361EA
:1003E0005149454300007F4141020408102041412A
:1003F0007F0000040201020440404040400001022E
:10040000040020545454787F4844443838444444C9
:1004100020384444487F3854545418087E09010257
:10042000081454543C7F0804047800447D400020A4
:1004300040443D00007F10284400417F40007C0480
:100440001804787C0804047838444444387C141434
:100450001408081414187C7C0804040848545454E4
:1004600020043F4440203C4040207C1C2040201C75
:100470003C4030403C44281028440C5050503C44F0
:1004800064544C44000836410000007F00000041E5
:100490003608000201030201000000000000000015
:1004A00000065F5F06000000000707000707000066
:1004B000147F7F147F7F1400242E6B6B3A12000090
:1004C000466630180C666200307A4F5D377A480015
:1004D0000407030000000000001C3E634100000010
:1004E0000041633E1C000000082A3E1C1C3E2A08F6
:1004F00008083E3E0808000000A0E0600000000080
:1005000008080808080800000000606000000000FB
:100510006030180C060301003E7F594D7F3E0000FD
:1005200042427F7F40400000627359496F6600007D
:10053000226349497F360000181C16137F7F100084
:10054000276745457D3900003C7E4B4979300000E6
:10055000036371190F070000367F49497F36000099
:10056000064F49693F1E000000006C6C000000004F
:1005700000A0EC6C00000000081C36634100000085
:100580001414141414140000004163361C080000F5
:10059000020351590F0600003E7F415D5D1F1E00A2
:1005A0007C7E13137E7C0000417F7F49497F3600AB
:1005B0001C3E634141632200417F7F41637F1C00F9
:1005C000417F7F495D416300417F7F491D010300F9
:1005D0001C3E6341517372007F7F08087F7F0000DB
:1005E00000417F7F41000000307040417F3F0100AB
:1005F000417F7F081C776300417F7F41406070002E
:100600007F7F060C067F7F007F7F060C187F7F00B0
:100610001C3E6341633E1C00417F7F49090F060079
:100620001E3F21717F5E0000417F7F19396F4600B8
:1006300026674D597B32000003417F7F4103000054
:100640007F7F40407F7F00001F3F60603F1F0000B2
:100650007F7F3018307F7F0063771C081C77630032
:10066000074F78784F0700006773594D4763710053
:10067000007F7F41410000000103060C183060003C
:100680000041417F7F000000080C0603060C0800B3
:10069000808080808080808000000307040000004C
:1006A000207454543C784000413F7F44447C3800DF
:1006B000387C44446C280000307848493F7F400033
:1006C000387C54545C180000487E7F4903020000C7
:1006D00098BCA4A4F87C0400417F7F08047C7800C7
:1006E00000447D7D4000000040C484FD7D0000008A
:1006F000417F7F10386C440000417F7F4000000044
:100700007C7C0C180C7C78007C7C04047C780000D9
:10071000387C44447C38000084FCF8A4243C180055
:10072000183C24A4F8FC8400447C78441C18000085
:10073000485C54547424000000043E7F44240000AC
:100740003C7C40403C7C40001C3C60603C1C000009
:100750003C7C6030607C3C00446C3810386C440059
:100760009CBCA0A0FC7C00004C64745C4C64000049
:1007700008083E7741410000000000777700000044
:100780004141773E08080000020301030203010013
:1007900011241FBECFEFD4E0DEBFCDBF13E0A0E039
:1007A000B1E0E4ECFAE202C005900D92A43CB1077E
:1007B000D9F724E0A4ECB3E001C01D92AB31B2073D
:1007C000E1F70E94240F0C9460150C940000FC01CA
:1007D000892BE9F070E080819181992384F086175C
:1007E000970714F4118210828281938199235CF01F
:1007F0008617970774F41382128280E0089591950A
:1008000081959109ECCF919581959109F1CF81E086
:10081000089580E00895CF93DF93CDB7DEB7289792
:100820000FB6F894DEBF0FBECDBF8887CE01089605
:100830009B838A8307979D838C8381E090E09F83CD
:100840008E83BE016E5F7F4F80E091E00E94AF0D0E
:10085000898128960FB6F894DEBF0FBECDBFDF9119
:10086000CF9108958F929F92AF92BF92CF92DF92D5
:10087000EF92FF921F93CF93DF93CDB7DEB76097D0
:100880000FB6F894DEBF0FBECDBF83E08A87CE01DE
:100890000A969C878B8704979E878D8784E090E0DB
:1008A000988B8F87BE01655F7F4F80E091E00E944B
:1008B000AF0D11E08985811101C010E0288530E07D
:1008C00050E040E02653310941095109A8ECB0E05D
:1008D0000E94D40F0F2EF3E98F2E912CA12CB12C56
:1008E000F02DA50194010E94B50F69017A0184E6FB
:1008F000C81AD108E108F1082F8130E050E040E04B
:100900002653310941095109A8ECB0E00E94D40FE7
:10091000A50194010E94B50F2456310941095109DE
:100920003A832983DC82CB823A814C2D5C81612F12
:1009300070E080E090E060960FB6F894DEBF0FBEE6
:10094000CDBFDF91CF911F91FF90EF90DF90CF90BF
:10095000BF90AF909F908F900895CF93DF93CDB7C6
:10096000DEB72B970FB6F894DEBF0FBECDBF84E085
:100970008983CE0101969F838E830196998788870C
:1009800084E090E09B878A87BE016A5F7F4F80E0AA
:1009900091E00E94AF0D7C816B818D812B960FB60B
:1009A000F894DEBF0FBECDBFDF91CF910895CF93F6
:1009B000DF93CDB7DEB72B970FB6F894DEBF0FBE2F
:1009C000CDBF81E08983CE0101969F838E830196FE
:1009D0009987888784E090E09B878A87BE016A5F59
:1009E0007F4F80E091E00E94AF0D7C816B818D8113
:1009F0002B960FB6F894DEBF0FBECDBFDF91CF911F
:100A00000895CF93DF93CDB7DEB72B970FB6F89449
:100A1000DEBF0FBECDBF82E08983CE0101969F83EA
:100A20008E8301969987888784E090E09B878A87E8
:100A3000BE016A5F7F4F80E091E00E94AF0D6B8145
:100A400070E08C812B960FB6F894DEBF0FBECDBF41
:100A5000DF91CF910895F894EAE8F0E080818D600D
:100A60008083EDE7F0E08081806180838FED91E00D
:100A7000909387008093860078940895CF93DF93B6
:100A800000D000D01F92CDB7DEB70E943204298378
:100A90003A834B835C836D836FE0CE0101960E94A5
:100AA000E7030E942B050F900F900F900F900F906F
:100AB000DF91CF910895CF92DF92EF92FF920F9343
:100AC0001F93CF937C01FC016081718176956795BE
:100AD000769567957695679581E30E946609F7019B
:100AE00060816295660F607E82E30E946609F7016D
:100AF000628185E30E946609F7018281938118165D
:100B00001906CCF487010C5F1F4FC6E38CEF9FEFF3
:100B10006C01CE18DF08F80161918F018C2F0E94C3
:100B20006609CF5FC601800F911FF70122813381D3
:100B30008217930784F390E080E00E94B709CF9179
:100B40001F910F91FF90EF90DF90CF9008958F92BB
:100B50009F92AF92BF92CF92DF92EF92FF920F934C
:100B60001F93CF93DF93CDB7DEB72C970FB6F894D2
:100B7000DEBF0FBECDBF5C0181E60E943B09C82EDF
:100B800082E60E943B09D12CCC0CDD1CCC0CDD1C78
:100B9000CC0CDD1C829586958770C82A85E60E945C
:100BA0003B09082F882E912C1F928F93DF92CF92B2
:100BB0008DEC91E09F938F930E94EA100F900F901D
:100BC0000F900F900F900F90181419047CF47E0171
:100BD00085E0E80EF11C0A5916E6812F0E943B09B8
:100BE000F70181937F011F5F1013F7CF41E061E0B0
:100BF0008CE20E94EC09DA82C9829C828B828CE0B2
:100C0000FE013196D50101900D928A95E1F7C5015B
:100C10002C960FB6F894DEBF0FBECDBFDF91CF91FB
:100C20001F910F91FF90EF90DF90CF90BF90AF900A
:100C30009F908F9008959C0190910901911106C099
:100C4000E3E0F1E03183208381E086830895109210
:100C50000601109205010895E3E0F1E0138212828B
:100C600083E090E095838483168211821082089538
:100C7000FF920F931F93CF93DF930E94C60AC3E0A6
:100C8000D1E08B818F938A818F9385E692E09F9349
:100C90008F931F926894FF24F5F8FF9204EC13E001
:100CA0001F930F930E942B1150E040E070E060E032
:100CB000C8010E94300B8D818F938C818F938FE0C0
:100CC00092E09F938F931F92FF921F930F930E9426
:100CD0002B1141E050E070E060E0C8010E94300B51
:100CE0008DB79EB740960FB6F8949EBF0FBE8DBFCE
:100CF000888199818130910531F160F0029769F125
:100D00008FE0EFE3F2E0A4ECB3E001900D928A955E
:100D1000E1F709C08CE0E9E1F2E0A4ECB3E0019076
:100D20000D928A95E1F742E050E070E060E084ECDB
:100D300093E00E94300B0E94200CDF91CF911F9115
:100D40000F91FF9008958EE0E5E2F2E0A4ECB3E0AD
:100D500001900D928A95E1F7E6CF8CE0E3E3F2E0B3
:100D6000A4ECB3E001900D928A95E1F7DCCFFC0191
:100D7000828180FF07C0E3E0F1E0828193810A96DF
:100D800093838283809105019091060184369105B9
:100D90001CF40E94380608950E942C06FACF90E0B9
:100DA00080E00E941B06089581E090E00E941B06EF
:100DB000089582E090E00E941B0608958AE091E089
:100DC00090937E0180937D01EFE7F1E02FEC36E018
:100DD0003583248324ED36E03387228729ED36E0FE
:100DE000318B208B178A168A909369018093680152
:100DF000EAE6F1E027E236E03583248313861286A3
:100E000090934E0180934D01EFE4F1E0158214823E
:100E100013861286118A108A9093330180933201CF
:100E2000E4E3F1E01582148213861286118A108A97
:100E3000E9E0F4E0918380831482138212820895A2
:100E40000E94DE0608956F927F928F929F92AF92DA
:100E5000BF92CF92DF92EF92FF920F931F93CF93A7
:100E6000DF93CDB7DEB760970FB6F894DEBF0FBE45
:100E7000CDBF0E94C60A09E014E0D801ED91FC91B3
:100E800060817181CE0101960E9489104FE150E08E
:100E9000BE016F5F7F4F84EE93E00E94901010922E
:100EA000030450E040E070E060E084EE93E00E94D4
:100EB000300B28E030E040E850E068E070E090E07F
:100EC00080E00E94A40CD801ED91FC9186818823DA
:100ED00009F45DC0712CCE0101966C0178010F2ED2
:100EE000F3E5AF2EF2E0BF2EF02D6894662465F88E
:100EF00004EE13E00F2EFEE48F2EF2E09F2EF02D75
:100F00001FC0DF92CF929F928F921F926F921F937A
:100F10000F930E942B110FB6F894DEBF0FBECDBF0A
:100F2000472D50E04E5F5F4F70E060E0C8010E94C7
:100F3000300B7394D701ED91FC918681781638F5CA
:100F4000272D30E0C901880F991F820F931F880F4A
:100F5000991F24813581820F931FDC016D917C9153
:100F6000C6010E948910F7018281871551F2DF9234
:100F7000CF92BF92AF921F926F921F930F930E94D6
:100F80002B110FB6F894DEBF0FBECDBFC9CF809135
:100F90000C0490910D04029701F5E3E0F1E08381E8
:100FA0008F9382818F9388E592E09F938F931F9216
:100FB00080E28F9384EE93E09F938F930E942B1196
:100FC00050E040E070E060E084EE93E00E94300B7F
:100FD0000FB6F894DEBF0FBECDBF0E94200C609606
:100FE0000FB6F894DEBF0FBECDBFDF91CF911F913A
:100FF0000F91FF90EF90DF90CF90BF90AF909F90B8
:101000008F907F906F900895FC018281811107C0BD
:10101000A081B18116968C91815082830895815070
:1010200082830895FC012281A081B18116968C9162
:101030008150990B2817190614F0128208952F5F1A
:1010400022830895CF93DF93EC016FE171E00E945A
:101050008010892BC1F06FED70E0CE010E948010EE
:10106000892BB1F064EB70E0CE010E948010892BD7
:1010700091F06FE870E0CE010E948010892B71F032
:1010800090E080E002C081E090E0DF91CF91089590
:1010900082E090E0FACF83E090E0F7CF84E090E048
:1010A000F4CFCF92DF92EF92FF920F931F93CF93E3
:1010B000DF93CDB7DEB764970FB6F894DEBF0FBEEF
:1010C000CDBF7C01DC01ED91FC91119712968C91C2
:1010D000282F30E0C901880F991F820F931F880FB6
:1010E000991F04811581080F191FD80112968D913F
:1010F0009C9113970097B1F4C780D084C114D10498
:1011000049F0F801608171818FE692E00E948010C1
:10111000892B59F1D8011496ED91FC913097B1F0DB
:10112000099514C0F701918380836D917C91CE0164
:1011300001960E948910CE0101960E942208D701D3
:1011400014969C938E93139712961C9264960FB6E6
:10115000F894DEBF0FBECDBFDF91CF911F910F91ED
:10116000FF90EF90DF90CF900895D701CD92DC9261
:10117000F60162817381CE0101960E948910CE0131
:1011800001960E942208D70114969C938E93139780
:1011900012961C92DBCFFC01828184FD05C082FD8A
:1011A00008C080FD0BC0089589E094E00E94040807
:1011B000089589E094E00E941208089589E094E07F
:1011C0000E945108F0CFCF93DF9300D000D01F9240
:1011D000CDB7DEB749835A836B837C8389819A813B
:1011E0004B815C8130E028173907A4F06627772708
:1011F000621B730B86179707BCF082E090E0241700
:10120000350754F084E090E0461757072CF483E04C
:1012100090E002C081E090E00F900F900F900F904F
:101220000F90DF91CF91089590E080E0F5CFCF93BC
:10123000DF9300D000D000D01F92CDB7DEB780EC96
:101240008983CE0101969B838A831D821C8281E063
:1012500090E09F838E83BE016E5F7F4F87E991E0B0
:101260000E94AF0D27960FB6F894DEBF0FBECDBF1C
:10127000DF91CF910895CF93DF93CDB7DEB72C9751
:101280000FB6F894DEBF0FBECDBF93E099838A837B
:101290008FEF8B83CE01019698878F8303969A8771
:1012A000898783E090E09C878B87BE01695F7F4FD1
:1012B00087E991E00E94AF0D8E812C960FB6F894CD
:1012C000DEBF0FBECDBFDF91CF910895CF93DF93E7
:1012D000CDB7DEB729970FB6F894DEBF0FBECDBFEE
:1012E00092E099838A836B83CE0101969D838C83E0
:1012F0001F821E8283E090E099878887BE016C5F21
:101300007F4F87E991E00E94AF0D29960FB6F894C0
:10131000DEBF0FBECDBFDF91CF910895CF93DF9396
:10132000CDB7DEB72A970FB6F894DEBF0FBECDBF9C
:1013300090EA99838A83CE0101969E838D830296DB
:1013400098878F8382E090E09A878987BE016B5FE0
:101350007F4F87E991E00E94AF0D8C812A960FB6EE
:10136000F894DEBF0FBECDBFDF91CF910895CF932C
:10137000DF9300D000D000D01F92CDB7DEB763E07E
:1013800070E00E94A10F21E82983009729F08130A5
:101390009105E1F00297E9F0CE0101969B838A83E3
:1013A0001D821C8281E090E09F838E83BE016E5F70
:1013B0007F4F87E991E00E94AF0D27960FB6F89412
:1013C000DEBF0FBECDBFDF91CF91089582E8898344
:1013D000E3CF84E88983E0CFCF93DF93CDB7DEB747
:1013E0002A970FB6F894DEBF0FBECDBF95E0998364
:1013F0008A836B834C83CE0101969E838D831886EE
:101400001F8284E090E09A878987BE016B5F7F4FDF
:1014100087E991E00E94AF0D2A960FB6F894DEBFDF
:101420000FBECDBFDF91CF910895482F60E78FE0C9
:101430000E94EC09089586E792E00E9400110E9444
:1014400017098CEC94E00197F1F700C000008EE0E2
:101450000E943B09807E803831F086E992E00E944C
:10146000001181E0089561EC8AE20E94660969EE4C
:1014700089E20E94660966E088E20E94660980E4CB
:101480000E94150A8CEC94E00197F1F700C000006F
:1014900041E061E08BE20E94EC0941E061E08CE216
:1014A0000E94EC0940E661E080E60E94EC098FB7FB
:1014B00080688FBF85B7836085BF8BB780648BBF23
:1014C0008A9A80E00895CF93DF9300D000D000D0B7
:1014D0001F92CDB7DEB78F83672BD9F4C298CE01A8
:1014E00007969A8389831C821B8281E090E09E8309
:1014F0008D83BE016F5F7F4F8AE991E00E94AF0D3F
:1015000027960FB6F894DEBF0FBECDBFDF91CF9107
:101510000895C29AE4CF0E942E0E0895CF93DF93D0
:10152000EC018038910514F0CFE7D0E0DD233CF1E9
:10153000862F972F8830910514F087E090E099234B
:101540000CF170E060E080550E94630A70E060E09A
:101550008C2F8F700E94630ACE019923ACF0959571
:10156000879595958795959587959595879570E03D
:1015700060E0805F0E94630ADF91CF910895D0E020
:10158000C0E0D6CF80E0DDCF0F96E9CFEF92FF929B
:101590000F931F93CF93DF930F2EE12CF4E1FF2ED7
:1015A000F02DE701870100581F4F60E0CE010E9437
:1015B0002E0E21960C171D07C1F780E8E80EF11CCE
:1015C000E11488E1F80669F7DF91CF911F910F913F
:1015D000FF90EF900895CF93DF93CDB7DEB76B9771
:1015E0000FB6F894DEBF0FBECDBF84E090E09093BD
:1015F000050480930404BA9A25E1E7EAF1E0CE01FC
:101600000196DC0101900D922A95E1F7C2989F8B1B
:101610008E8B198E188E85E190E09B8F8A8FBE018C
:101620006A5E7F4F8AE991E00E94AF0DC29A0E94E4
:10163000C60AF8948DE083BF89B7816089BF8FE9BE
:1016400081BF78946B960FB6F894DEBF0FBECDBF06
:10165000DF91CF9108959093050480930404089539
:101660005F926F927F928F929F92AF92BF92CF9232
:10167000DF92EF92FF920F931F93CF93DF93CDB73B
:10168000DEB7B62E572EF42EE52E6DB67EB6FC01D3
:1016900001900020E9F731974F01881A990A0091CB
:1016A000040410910504089D9001099D300D189DBA
:1016B000300D11244DB75EB7421B530B0FB6F89493
:1016C0005EBF0FBE4DBF2DB73EB72F5F3F4F81149A
:1016D000910409F49AC0AC016901880D991D3CC0C0
:1016E000EE0FFF1FEE0FFF1FEF5BFE4FB9016C5FA8
:1016F0007F4FD901A490AD923196A617B707D1F7C5
:1017000026C0BF01660F771F660F771FE60FF71F12
:10171000E354FD4FB9016B5F7F4FD901A490AD92A7
:101720003196A617B707D1F712C0EE0FFF1FEE0FC5
:10173000FF1FEE0FFF1FE856FB4FB901685F7F4F99
:10174000D901A490AD923196A617B707D1F7200F13
:10175000311F4817590711F1DA01ED91AD010E2E35
:10176000000CFF0BB0970530110559F20830110538
:10177000E1F20430110509F4B3CFEE0FFF1FEE0FB5
:10178000FF1FEF5BFE4FB9016C5F7F4FD901A49043
:10179000AD923196A617B707D1F7D9CF8F2D9E2DD1
:1017A0008830910514F087E090E099230CF442C052
:1017B0009695982F8827979587952B2D352D20382E
:1017C000310514F02FE730E03323BCF15C01A20EA9
:1017D000B31E4CEEB41AF12CE12C4091040450914C
:1017E00005044E9DC0014F9D900D5E9D900D1124EE
:1017F000B6018A0D9B1D0E948D0EBFEFEB1AFB0AEE
:10180000C00ED11E8E149F0441F70FB6F8947EBE11
:101810000FBE6DBEDF91CF911F910F91FF90EF90A2
:10182000DF90CF90BF90AF909F908F907F906F9000
:101830005F90089590E080E0BBCF30E020E0C6CF1D
:10184000EF92FF920F931F93CF93DF93C0E0D4E109
:10185000F12CE12CB70190E080E00E948E0A8E010D
:1018600000581F4FCE010E94320E61E070E00E94CE
:10187000630A2196C017D107A9F78FEFE81AF80A73
:1018800088E0E816F10431F7DF91CF911F910F91B5
:10189000FF90EF900895EF92FF920F931F93CF93D5
:1018A000DF931F92CDB7DEB71982E62EF72E20E424
:1018B000E216F1042CF00F2EFFE3EF2EF12CF02DA9
:1018C000FF20CCF1282F392F2038310514F02FE7D5
:1018D00030E033239CF13C5E8701FF2094F11595A5
:1018E000079515950795159507951695102F0027BF
:1018F00017950795020F131FC8010E94320E97E03B
:10190000E922FF2441E050E002C0440F551FEA9451
:10191000E2F7842B898341E050E0BE016F5F7F4F87
:10192000C8010E948D0E0F90DF91CF911F910F91F2
:10193000FF90EF900895F12CE12CC4CF30E020E02F
:10194000CACF095F1F4FCBCF2F923F924F925F922A
:101950006F927F928F929F92AF92BF92CF92DF92BF
:10196000EF92FF920F931F93CF93DF9300D000D09D
:10197000CDB7DEB78C018038910514F00FE710E089
:1019800011230CF456C06B837C838B819C81803443
:10199000910524F08FE390E09C838B838B819C8165
:1019A00099230CF449C0642E752E90E869167104D1
:1019B0002CF00F2EFFE76F2E712CF02D77200CF4FA
:1019C0003EC0422E532E20E4421651042CF00F2E1E
:1019D000FFE34F2E512CF02D5520A4F1C301801BA5
:1019E000910B7C0192F1AA24AA94BA2C0615170532
:1019F0001CF4AA24A394B12CC2012B813C81821B2C
:101A0000930B6C013AF1DA82C982D194C194D10866
:101A10008B819C8188248A94982C841595051CF4CC
:101A200088248394912C170129813A81221A330A40
:101A30001CC010E000E0A7CF1C821B82B4CF712C29
:101A4000612CBFCF512C412CC9CFEE24FF24E81AC2
:101A5000F90AC9CFCC24DD24C81AD90AD4CF2E0C58
:101A60003F1C880D991D9C838B836B817C81C801F1
:101A70000E944B0CC101880F991F8C159D054CF0DD
:101A80000615170571F029813A81221A330A0A0DC9
:101A90001B1DE816F9064CF38B819C818415950576
:101AA000F1F60F900F900F900F90DF91CF911F9153
:101AB0000F91FF90EF90DF90CF90BF90AF909F90ED
:101AC0008F907F906F905F904F903F902F900895F0
:101AD000FC0187B3908121E030E0A90102C0440FEE
:101AE000551F9A95E2F79181B90102C0660F771FE1
:101AF0009A95E2F7462B482B47BB87B3928102C0E9
:101B0000220F331F9A95E2F72095282327BB8DB12A
:101B100081658DB90895DC01ED91FC9111972081CB
:101B200012963C9181E090E002C0880F991F3A958F
:101B3000E2F78095822380830895DC01ED91FC918A
:101B40001197908112968C9121E030E002C0220F13
:101B5000331F8A95E2F7892F822B808308952F9275
:101B60003F924F925F926F927F928F929F92AF922D
:101B7000BF92CF92DF92EF92FF920F931F93CF937A
:101B8000DF932C016B010E948B0DF601A080B180C8
:101B9000E280F38084819581181619060CF041C00B
:101BA0008501D0E0C0E033243A940F2EF1ED8F2E62
:101BB000F2E09F2EF02D0F2EF0EF6F2EF2E07F2E31
:101BC000F02D09C021960F5F1F4FF601848195818A
:101BD000C817D90734F5832DA114B10411F0F80109
:101BE00080818FB91F928F939F928F920E94EA10EB
:101BF0000F900F900F900F90779BFECF2FB0E114B6
:101C0000F10401F31F922F927F926F920E94EA10CB
:101C1000F701EC0FFD1F20820F900F900F900F9097
:101C2000D1CFC2010E949D0DDF91CF911F910F91E5
:101C3000FF90EF90DF90CF90BF90AF909F908F90EC
:101C40007F906F905F904F903F902F90089585B751
:101C5000806885BF80B7806280BF08959C5EFC016C
:101C6000608308959C5EFC0180810895DB012C91C6
:101C7000AC01222361F0FB013196AC014F5F5F4F55
:101C80009C5EDC012C932191CA012111F6CF5C5E90
:101C9000FA01108208950F931F93CF93DF938C0165
:101CA0004150510911F1FC01FC5E8081FB018083F0
:101CB0008823E9F0EB01219630E020E0D90111966C
:101CC0004A175B0751F02F5F3B4EF901E00FF11F00
:101CD000908199939D019111F1CFA60FB71F1C928E
:101CE000DF91CF911F910F910895DA01F6CFB0E007
:101CF000A0E0F3CF4115510579F0460F571FFB01C6
:101D00009C5E9C01261B370BD901AE0FBF1F9C9117
:101D10009193E417F507C1F708954115510581F036
:101D2000460F571FFB0181509C4E9C01261B370B11
:101D30009191D901AE0FBF1F9C93E417F507C1F72E
:101D40000895EF92FF920F931F93CF93DF938CE050
:101D500093E09F938F930E94EA100E9470107C0181
:101D60000E9475100F900F90D0E0C0E00AE213E0DF
:101D700005C02196C1159CE0D907E1F00E947010C2
:101D8000FE01FC5E80832081281799F399279F9399
:101D90008F931F922F93DF93CF931F930F930E94E4
:101DA000EA108DB79EB708960FB6F8949EBF0FBE87
:101DB0008DBFDFCFC7010E947510C0E0D4E10E9443
:101DC00070108991C11580E2D807C9F7DF91CF91D2
:101DD0001F910F91FF90EF9008955D9BFECF8CB9FE
:101DE00090E080E008955F9BFECF8CB190E0089575
:101DF00090BD89B98AB188618AB98EE880BD63EFE8
:101E00007EE08DEE9EE00E949F10089587B38A6168
:101E100087BB88B38A6188BB0895CF938FE190E038
:101E20000E94F80E0E94270E0E94060F0E941B0AB5
:101E3000C82F882321F0C1E08C2FCF9108958BE625
:101E400093E00E940011F8CFCF93DF93CDB7DEB7B8
:101E50006D970FB6F894DEBF0FBECDBF85E0ECEBFB
:101E6000F1E0DE01119601900D928A95E1F7CE0125
:101E700001960E94680D0E940D0F81112EC08CE00A
:101E8000E1ECF1E0DE01169601900D928A95E1F702
:101E9000CE0106960E945B05CE0142960E94A705E0
:101EA000CE010A969F938F938EEA93E09F938F9330
:101EB0000E94EA1080E090EF0197F1F70F900F90E9
:101EC0000F900F9090E080E06D960FB6F894DEBF13
:101ED0000FBECDBFDF91CF91089587E893E00E94B8
:101EE000001181E090E0F0CF1F920F920FB60F9299
:101EF00011248F9381E0809308048F910F900FBE7F
:101F00000F901F9018951F920F920FB60F921124E9
:101F10008F9381E0809307048F910F900FBE0F90F5
:101F20001F9018951F920F920FB60F9211248F9346
:101F300081E0809306048F910F900FBE0F901F9049
:101F4000189597FB072E16F4009407D077FD09D05B
:101F50000E94DF0F07FC05D03EF4909581959F4FBE
:101F60000895709561957F4F0895052E97FB1EF497
:101F700000940E94CC0F57FD07D00E94F30F07FC7E
:101F800003D04EF40C94CC0F50954095309521958C
:101F90003F4F4F4F5F4F0895909580957095619595
:101FA0007F4F8F4F9F4F08950E941510A59F900D52
:101FB000B49F900DA49F800D911D11240895AA1B1C
:101FC000BB1B51E107C0AA1FBB1FA617B70710F024
:101FD000A61BB70B881F991F5A95A9F78095909556
:101FE000BC01CD010895A1E21A2EAA1BBB1BFD0165
:101FF0000DC0AA1FBB1FEE1FFF1FA217B307E407E8
:10200000F50720F0A21BB30BE40BF50B661F771F3F
:10201000881F991F1A9469F760957095809590951F
:102020009B01AC01BD01CF010895A29FB001B39FF8
:10203000C001A39F700D811D1124911DB29F700DD1
:10204000811D1124911D08958F929F92AF92BF928E
:10205000CF92DF92EF92FF92CF93DF93EC016881F2
:1020600079818A819B81611571058105910521F432
:1020700064E279ED8BE597E02DE133EF41E050E04C
:102080000E94B50F49015A019B01AC01A7EAB1E4D6
:102090000E94D40F6B017C01ACEEB4EFA50194015A
:1020A0000E942415DC01CB018C0D9D1DAE1DBF1DB2
:1020B000B7FF03C00197A109B04888839983AA8319
:1020C000BB839F77DF91CF91FF90EF90DF90CF9010
:1020D000BF90AF909F908F9008950E942410089514
:1020E0008DE991E00E9424100895B0E0A0E0809373
:1020F0009D0190939E01A0939F01B093A00108952C
:10210000FB01DC018D91059080190110D9F3990B29
:102110000895FB01DC0105900D920020E1F7089580
:10212000FB01DC014150504048F001900D9200202D
:10213000C9F701C01D9241505040E0F708950F9338
:102140001F93CF93DF93009759F46115710541F404
:10215000F0E0E0E0CF01DF91CF911F910F91089562
:102160008B01EC016EE070E081E090E00E9435139D
:10217000FC01892B69F380E883830115110571F057
:102180001387028781E88383809111049091120460
:10219000892B21F4F0931204E09311042097D1F2DB
:1021A000D187C0878381826083838091130490915B
:1021B0001404892B79F6F0931404E09313048091AE
:1021C000150490911604892B29F6F0931604E093D8
:1021D0001504C0CFB0E0A0E0E0EFF0E10C943915B9
:1021E000AE014B5F5F4FFA0161917191AF01809138
:1021F0001304909114040E945B11E2E00C945515B5
:102200000F931F93CF93DF93E0911304F091140485
:102210002381EC0110E000E021FD08C00FEF1FEF6B
:1022200014C00995892B11F00FEF1FEF8991609170
:10223000130470911404DB011896ED91FC91811147
:10224000F0CF8AE00995892B49F7C801DF91CF913A
:102250001F910F910895AEE0B0E0E1E3F1E10C943D
:1022600037150D891E898F89988D26E02C831A8356
:10227000098397FF02C080E090E801979E838D83D9
:10228000AE01455E5F4F698D7A8DCE0101960E9449
:102290005B114D815E8157FD0AC02F813885421741
:1022A00053070CF49A01020F131FF80110822E96A7
:1022B000E4E00C945315ABE0B0E0E1E6F1E10C94FE
:1022C00029157C013B018A01FC011782168283815A
:1022D00081FFC8C1CE0101965C01F7019381F30132
:1022E00093FD859193FF81913F01882309F453C1A8
:1022F000853239F493FD859193FF81913F018532B9
:1023000029F4B70190E00E949314E7CF912C212C7F
:10231000312CFFE1F31538F08B3211F190F480325B
:1023200009F1833229F137FC3CC020ED280F2A3017
:1023300050F536FE20C08AE0989E200D1124922E82
:1023400006C08D3291F0803371F7689430F8F30154
:1023500093FD859193FF81913F018111DACF21C0D7
:10236000689431F8689432F8F2CF689433F8EFCF7C
:10237000689434F8ECCFEAE02E9E200D1124222E32
:10238000689435F8E4CF8E3229F436FC04C16894A1
:1023900036F8DDCF8C3619F4689437F8D8CF883604
:1023A000B1F2982F9F7D95549330E0F08336A1F1E0
:1023B0008337C1F1833509F063C02801F2E04F0E85
:1023C000511CF801C080D180692D70E036FC02C03C
:1023D0006FEF7FEFC6010E9476144C01689437F8C6
:1023E00082010AC00C5F1F4FFFE3F98388248394A6
:1023F000912C6501E89437F833FE2DC0522C8114DE
:10240000910471F5552009F468CFB70180E290E09E
:102410000E9493145A94F6CFF801808189830E5F4D
:102420001F4FE4CF2801F2E04F0E511CF801C0808D
:10243000D180692D70E036FC02C06FEF7FEFC601DE
:102440000E9488144C018201D5CFB70180E290E050
:102450000E9493142A942814190409F0B0F7CECFDF
:10246000F60137FC859137FE81916F01B70190E04D
:102470000E94931451105A94F1E08F1A9108BFCF23
:10248000843619F0893609F077C0F80137FE6BC041
:1024900060817181828193810C5F1F4FF32DFF76E4
:1024A0003F2E97FF09C090958095709561957F4F5D
:1024B0008F4F9F4F689437F82AE030E0A5010E94C3
:1024C000C314C82ECA188C2C432C36FE0CC0E894BA
:1024D00040F8C91440F434FE05C032FC03C0F32DAB
:1024E000FE7E4F2E892C44FE95C0FE01EC0DF11DA1
:1024F0008081803309F087C0242D297E422E842DCF
:102500008870582E43FC95C040FE8FC09C2C8214CE
:1025100018F42C0C922C981844FE91C0B70180E35B
:1025200090E00E94931442FE09C088E790E041FECB
:1025300002C088E590E0B7010E949314C91408F422
:102540008AC0CA94D12C9FEFC91AD90ACA0CDB1CC5
:10255000F60182916F01B70190E00E949314AC14D0
:10256000BD04B1F74FCF60817181072E000C880B3D
:10257000990B0E5F1F4F92CFD32CE894D4F82AE02A
:1025800030E0853739F1232D297FD22E8F3601F1A6
:1025900048F48835A9F0F701868197812B96E2E10E
:1025A0000C944515803749F08837A9F7D4FE02C04E
:1025B0006894D2F820E130E00DC06894D4F8F6CFEA
:1025C00034FE03C0822F8660D82E20E132E002C0A4
:1025D00028E030E0F801D7FE0FC060817181828170
:1025E00093810C5F1F4FA5010E94C314C82ECA1807
:1025F0003D2CE89437F867CF6081718190E080E0EE
:102600000E5F1F4FF0CF42FC02C0839478CF8394BB
:10261000839475CF842D867809F471CFF6CFB701F6
:1026200080E290E00E94931483948214C0F3512CB2
:1026300073CF522C5818821408F46ECFF8CF842D23
:10264000867809F47BCF8BE241FE80E247FC8DE285
:10265000B70190E071CFB70180E390E00E9493143E
:102660009A946CCF8FEF9FEF99CF0F931F93CF93D7
:10267000DF93869F8001879F100D969F100D112478
:10268000C8010E945113EC01009729F0A80170E0E5
:1026900060E00E948114CE01DF91CF911F910F91D4
:1026A00008950F931F93CF93DF938230910510F419
:1026B00082E090E0E0911904F0911A0430E020E00B
:1026C000B0E0A0E0309799F42115310509F44AC033
:1026D000281B390B24303105D8F58A819B8161157F
:1026E000710589F1FB0193838283FE0111C0408152
:1026F00051810281138148175907E0F048175907A3
:1027000099F4109761F012960C93129713961C93FC
:102710003296CF01DF91CF911F910F9108950093D1
:10272000190410931A04F4CF2115310551F0421702
:10273000530738F0A901DB019A01BD01DF01F8015F
:10274000C1CFEF01F9CF90931A0480931904CDCF34
:10275000FE01E20FF31F81939193225031093983D7
:102760002883D7CF2091170430911804232B41F4EC
:102770002091A3013091A4013093180420931704F1
:102780002091A1013091A2012115310541F42DB70D
:102790003EB74091A5015091A601241B350BE09155
:1027A0001704F0911804E217F307A0F42E1B3F0B57
:1027B0002817390778F0AC014E5F5F4F24173507B3
:1027C00048F04E0F5F1F50931804409317048193F5
:1027D00091939FCFF0E0E0E09CCFCF93DF93009701
:1027E000E9F0FC01329713821282A0911904B09192
:1027F0001A04ED0130E020E01097A1F4208131812E
:10280000820F931F2091170430911804281739075D
:1028100009F061C0F0931804E0931704DF91CF91A1
:102820000895EA01CE17DF07E8F54A815B819E0132
:1028300041155105B1F7E901FB83EA8349915991AB
:10284000C40FD51FEC17FD0761F4808191810296BA
:10285000840F951FE90199838883828193819B83EB
:102860008A83F0E0E0E012968D919C911397009797
:10287000B9F52D913C911197CD010296820F931FCE
:1028800020911704309118042817390739F630972A
:1028900051F510921A0410921904B0931804A093E1
:1028A0001704BCCFD383C28340815181840F951F0D
:1028B000C817D90761F44E5F5F4F88819981480F2F
:1028C000591F518340838A819B8193838283211581
:1028D000310509F0B0CFF0931A04E09319049ECFAC
:1028E000FD01DC01C0CF13821282D7CFFC0105901D
:1028F000615070400110D8F7809590958E0F9F1F02
:102900000895DC0101C06D9341505040E0F70895F7
:10291000FC016150704001900110D8F780959095AE
:102920008E0F9F1F08950F931F93CF93DF93182F40
:10293000092FEB018B8181FD09C01FEF0FEF812F64
:10294000902FDF91CF911F910F91089582FF14C0B6
:102950002E813F818C819D81281739073CF4E881C5
:10296000F981CF0101969983888310838E819F819D
:1029700001969F838E83E3CFE885F985812F0995A2
:10298000892BA1F3DACFFA01AA27283051F120319F
:1029900081F1E8946F936E7F6E5F7F4F8F4F9F4FF3
:1029A000AF4FB1E03ED0B4E03CD0670F781F891F35
:1029B0009A1FA11D680F791F8A1F911DA11D6A0F03
:1029C000711D811D911DA11D20D009F468943F91B6
:1029D0002AE0269F11243019305D3193DEF6CF01B5
:1029E0000895462F4770405D4193B3E00FD0C9F77B
:1029F000F6CF462F4F70405D4A3318F0495D31FDE8
:102A00004052419302D0A9F7EACFB4E0A69597953A
:102A1000879577956795BA95C9F700976105710510
:102A200008959B01AC010A2E06945795479537955A
:102A30002795BA95C9F7620F731F841F951FA01DB4
:102A40000895B7FF0C94D40F0E94D40F821B930BF0
:102A500008952F923F924F925F926F927F928F9242
:102A60009F92AF92BF92CF92DF92EF92FF920F931D
:102A70001F93CF93DF93CDB7DEB7CA1BDB0B0FB627
:102A8000F894DEBF0FBECDBF09942A8839884888E4
:102A90005F846E847D848C849B84AA84B984C8847A
:102AA000DF80EE80FD800C811B81AA81B981CE0F71
:102AB000D11D0FB6F894DEBF0FBECDBFED01089556
:042AC000F894FFCFB8
:102AC4003800040000000003000037012D01130149
:102AD4000400001F0176010000DF0061010000B462
:102AE400002B0100008F0046010000C300B4003435
:102AF40001030000AA0000000000A0000000000084
:102B04007000000000009A008F004F010300008352
:102B140000000000007700000000007000000000CA
:102B240000F000DF006A01020000CD000000000098
:102B34007000000000000D011F017F010400000867
:102B44000100000000010100000000FC0000000082
:102B5400007000000000003800013800030100008C
:102B64000000001B042000AEA83FD580D300402005
:102B740002A1C8DA1281FFDB34A4A6AF050706015F
:102B8400000002010048000000000000005B496EE4
:102B9400666F5D3A204C4647212120526563656982
:102BA4007665642043414E206D65737361676520CB
:102BB400776974682049443A202523782C2044619D
:102BC4007461204C656E6774683A2025640A004C71
:102BD400697665733A202564004C6576656C3A2005
:102BE40045617379004C6576656C3A204D6564697E
:102BF400756D004C6576656C3A2048617264004CD2
:102C04006576656C3A20556E6B6E6F776E003E206C
:102C1400257300202025730043757272656E74203D
:102C2400486967682053636F72653A2025640052CF
:102C3400657475726E005B496E666F5D3A20496E0D
:102C4400697469616C697A696E67204D43503235E5
:102C540031352E2E2E005B4572726F725D3A204D17
:102C6400435032353135206973204E4F5420696EFC
:102C740020636F6E66696775726174696F6E206D2B
:102C84006F64652061667465722072657365742172
:102C9400005B496E666F5D3A205472616E736D69B4
:102CA4007474656420627974653A202523780A0077
:102CB4005B496E666F5D3A2052656365697665644B
:102CC40020627974653A202523780A005B496E6690
:102CD4006F5D3A205374617274696E672053524178
:102CE4004D20746573742E2E2E005B4572726F72C4
:102CF4005D3A205772697465207068617365206558
:102D040072726F723A206578745F72616D5B2534FC
:102D1400645D203D2025303258202873686F756C1F
:102D240064206265202530325829005B496E666F45
:102D34005D3A2053797374656D20696E69746961B5
:102D44006C697A65642E005B4572726F725D3A201D
:102D540053797374656D20696E697469616C697AFD
:102D64006174696F6E206661696C656421005B49FA
:102D74006E666F5D3A20526563657074696F6E3A72
:042D84002025730093
:00000001FF
